:1000000000308A00B12800000A108A100A11820705
:100010003734383439344134343435343634423476
:1000200031343234333443342A3430342334443496
:100030008A110A12D728AE01A00A2008213C031811
:100040007B282308FC3E03183E28043E8428EF301A
:1000500083168600831286003E28DF3083168600D2
:10006000831286003E28BF308316860083128600E6
:100070003E287F308316860083128600211C4A2882
:1000800006080F390F3C031D492821102208AE0035
:10009000A2017A2806080F390F3C031975280608B3
:1000A0000139031D5528AF01692806080239031DCF
:1000B0005C280130AF00692806080439031D632855
:1000C0000230AF00692806080839031D692803308B
:1000D000AF002F0DF700F70DFC30F7057708230769
:1000E0000420F800A20021147A28A30A2308043C63
:1000F0000319A301A001FF308316860083122E0886
:10010000F8008A110A12DB280A108A100A118207E5
:1001100027282D283328392894138C112E08930072
:100120000230941B9A288C1D932800308316111BD3
:1001300001308312F80008002E3084008313000879
:100140000319B0280130F800F701F70BA528F80BC8
:10015000A4284A30F700F70BAB28AE28800BA22862
:10016000080003081F398300FF30A400A4152408E9
:10017000831687008312241624088316870009300B
:1001800093002830831294008316941714131F14BD
:100190009F141F159F1183138312A0012110A20128
:1001A000A301A501A6013030AC00AD0118288316CB
:1001B000811383121B287808AC0030302C02AD006C
:1001C0002C08413C0319AB012C08423C031DEA28D2
:1001D0000130AB002C08433C031DF0280230AB007B
:1001E0002D08093C031C4529AB08031D0F29831664
:1001F00011141118F928A0308312AE008C20AE0122
:100200008C20AE018C202D08AE008C208316111599
:100210001119082964308312AE009C20AD012B0B0C
:1002200029298316111411181329A2308312AE0044
:100230008C20AE018C20AE018C202D08AE008C20CD
:10024000831611151119222964308312AE009C20E7
:10025000AD012B08023C031D45298316111411180A
:100260002F29A4308312AE008C20AE018C20AE0169
:100270008C202D08AE008C208316111511193E29F3
:0E02800064308312AE009C20AD01DA286300CA
:02400E00723FFF
:00000001FF
;PIC16F877
;CRC=1D26  CREATED="25-jun-19 02:58"
